{
  "_format": "hh-sol-artifact-1",
  "contractName": "CertificateRegistry",
  "sourceName": "contracts/CertificateRegistry.sol",
  "abi": [
    {
      "inputs": [],
      "stateMutability": "nonpayable",
      "type": "constructor"
    },
    {
      "anonymous": false,
      "inputs": [
        {
          "indexed": false,
          "internalType": "string",
          "name": "certId",
          "type": "string"
        },
        {
          "indexed": false,
          "internalType": "string",
          "name": "studentName",
          "type": "string"
        },
        {
          "indexed": false,
          "internalType": "string",
          "name": "course",
          "type": "string"
        },
        {
          "indexed": false,
          "internalType": "string",
          "name": "ipfsHash",
          "type": "string"
        },
        {
          "indexed": false,
          "internalType": "address",
          "name": "issuer",
          "type": "address"
        }
      ],
      "name": "CertificateIssued",
      "type": "event"
    },
    {
      "anonymous": false,
      "inputs": [
        {
          "indexed": false,
          "internalType": "string",
          "name": "certId",
          "type": "string"
        },
        {
          "indexed": false,
          "internalType": "address",
          "name": "revoker",
          "type": "address"
        }
      ],
      "name": "CertificateRevoked",
      "type": "event"
    },
    {
      "inputs": [
        {
          "internalType": "address",
          "name": "issuer",
          "type": "address"
        }
      ],
      "name": "addAuthorizedIssuer",
      "outputs": [],
      "stateMutability": "nonpayable",
      "type": "function"
    },
    {
      "inputs": [
        {
          "internalType": "address",
          "name": "",
          "type": "address"
        }
      ],
      "name": "authorizedIssuers",
      "outputs": [
        {
          "internalType": "bool",
          "name": "",
          "type": "bool"
        }
      ],
      "stateMutability": "view",
      "type": "function"
    },
    {
      "inputs": [
        {
          "internalType": "string",
          "name": "",
          "type": "string"
        }
      ],
      "name": "certificates",
      "outputs": [
        {
          "internalType": "string",
          "name": "studentName",
          "type": "string"
        },
        {
          "internalType": "string",
          "name": "course",
          "type": "string"
        },
        {
          "internalType": "string",
          "name": "ipfsHash",
          "type": "string"
        },
        {
          "internalType": "uint256",
          "name": "issuedAt",
          "type": "uint256"
        },
        {
          "internalType": "bool",
          "name": "isValid",
          "type": "bool"
        },
        {
          "internalType": "address",
          "name": "issuer",
          "type": "address"
        }
      ],
      "stateMutability": "view",
      "type": "function"
    },
    {
      "inputs": [
        {
          "internalType": "string",
          "name": "certId",
          "type": "string"
        }
      ],
      "name": "getCertificate",
      "outputs": [
        {
          "components": [
            {
              "internalType": "string",
              "name": "studentName",
              "type": "string"
            },
            {
              "internalType": "string",
              "name": "course",
              "type": "string"
            },
            {
              "internalType": "string",
              "name": "ipfsHash",
              "type": "string"
            },
            {
              "internalType": "uint256",
              "name": "issuedAt",
              "type": "uint256"
            },
            {
              "internalType": "bool",
              "name": "isValid",
              "type": "bool"
            },
            {
              "internalType": "address",
              "name": "issuer",
              "type": "address"
            }
          ],
          "internalType": "struct CertificateRegistry.Certificate",
          "name": "",
          "type": "tuple"
        }
      ],
      "stateMutability": "view",
      "type": "function"
    },
    {
      "inputs": [
        {
          "internalType": "string",
          "name": "certId",
          "type": "string"
        }
      ],
      "name": "isCertificateValid",
      "outputs": [
        {
          "internalType": "bool",
          "name": "",
          "type": "bool"
        }
      ],
      "stateMutability": "view",
      "type": "function"
    },
    {
      "inputs": [
        {
          "internalType": "string",
          "name": "certId",
          "type": "string"
        },
        {
          "internalType": "string",
          "name": "studentName",
          "type": "string"
        },
        {
          "internalType": "string",
          "name": "course",
          "type": "string"
        },
        {
          "internalType": "string",
          "name": "ipfsHash",
          "type": "string"
        }
      ],
      "name": "issueCertificate",
      "outputs": [],
      "stateMutability": "nonpayable",
      "type": "function"
    },
    {
      "inputs": [
        {
          "internalType": "address",
          "name": "issuer",
          "type": "address"
        }
      ],
      "name": "removeAuthorizedIssuer",
      "outputs": [],
      "stateMutability": "nonpayable",
      "type": "function"
    },
    {
      "inputs": [
        {
          "internalType": "string",
          "name": "certId",
          "type": "string"
        }
      ],
      "name": "revokeCertificate",
      "outputs": [],
      "stateMutability": "nonpayable",
      "type": "function"
    },
    {
      "inputs": [],
      "name": "university",
      "outputs": [
        {
          "internalType": "address",
          "name": "",
          "type": "address"
        }
      ],
      "stateMutability": "view",
      "type": "function"
    },
    {
      "inputs": [
        {
          "internalType": "string",
          "name": "certId",
          "type": "string"
        }
      ],
      "name": "verifyCertificate",
      "outputs": [
        {
          "internalType": "string",
          "name": "",
          "type": "string"
        },
        {
          "internalType": "string",
          "name": "",
          "type": "string"
        },
        {
          "internalType": "string",
          "name": "",
          "type": "string"
        },
        {
          "internalType": "uint256",
          "name": "",
          "type": "uint256"
        },
        {
          "internalType": "bool",
          "name": "",
          "type": "bool"
        },
        {
          "internalType": "address",
          "name": "",
          "type": "address"
        }
      ],
      "stateMutability": "view",
      "type": "function"
    }
  ],
  "bytecode": "0x608060405234801561001057600080fd5b50600080546001600160a01b0319163390811782558152600260205260409020805460ff191660011790556112498061004a6000396000f3fe608060405234801561001057600080fd5b506004361061009e5760003560e01c80639c2b1d21116100665780639c2b1d211461012b578063ae12894e1461013e578063ed0f2e7514610169578063f55294c914610189578063f731fa0f1461019c57600080fd5b8063142e1542146100a3578063195098d0146100b8578063818a2994146100e05780638b23d875146100f35780638f2b91ea14610118575b600080fd5b6100b66100b1366004610d7d565b6101bf565b005b6100cb6100c6366004610d7d565b610386565b60405190151581526020015b60405180910390f35b6100b66100ee366004610dba565b6103b4565b610106610101366004610d7d565b6105b6565b6040516100d796959493929190610eb7565b610106610126366004610d7d565b610806565b6100b6610139366004610f18565b6109ea565b600054610151906001600160a01b031681565b6040516001600160a01b0390911681526020016100d7565b61017c610177366004610d7d565b610a38565b6040516100d79190610f48565b6100b6610197366004610f18565b610c8f565b6100cb6101aa366004610f18565b60026020526000908152604090205460ff1681565b3360009081526002602052604090205460ff16806101e757506000546001600160a01b031633145b6102295760405162461bcd60e51b815260206004820152600e60248201526d139bdd08185d5d1a1bdc9a5e995960921b60448201526064015b60405180910390fd5b600060018260405161023b9190610fd5565b908152604051908190036020019020805461025590610ff1565b9050116102a45760405162461bcd60e51b815260206004820152601a60248201527f436572746966696361746520646f6573206e6f742065786973740000000000006044820152606401610220565b6001816040516102b49190610fd5565b9081526040519081900360200190206004015460ff166103165760405162461bcd60e51b815260206004820152601b60248201527f436572746966696361746520616c7265616479207265766f6b656400000000006044820152606401610220565b60006001826040516103289190610fd5565b908152604051908190036020018120600401805492151560ff19909316929092179091557f7b87df98e4ff33f07a9fbda6f93a6b69c498e48444877da8c54a83d3a43aee5b9061037b908390339061102b565b60405180910390a150565b60006001826040516103989190610fd5565b9081526040519081900360200190206004015460ff1692915050565b3360009081526002602052604090205460ff16806103dc57506000546001600160a01b031633145b6104195760405162461bcd60e51b815260206004820152600e60248201526d139bdd08185d5d1a1bdc9a5e995960921b6044820152606401610220565b6001846040516104299190610fd5565b908152604051908190036020019020805461044390610ff1565b1590506104925760405162461bcd60e51b815260206004820152601a60248201527f436572746966696361746520616c7265616479206578697374730000000000006044820152606401610220565b6040518060c00160405280848152602001838152602001828152602001428152602001600115158152602001336001600160a01b03168152506001856040516104db9190610fd5565b908152604051908190036020019020815181906104f890826110a4565b506020820151600182019061050d90826110a4565b506040820151600282019061052290826110a4565b506060820151600382015560808201516004909101805460a0909301516001600160a01b031661010002610100600160a81b0319921515929092166001600160a81b0319909316929092171790556040517f2fc027b18d6a385ec35b10c7e510558eceabf0e1d817d5f30ab92ec8fe3a9852906105a89086908690869086903390611164565b60405180910390a150505050565b60608060606000806000806001886040516105d19190610fd5565b90815260200160405180910390206040518060c00160405290816000820180546105fa90610ff1565b80601f016020809104026020016040519081016040528092919081815260200182805461062690610ff1565b80156106735780601f1061064857610100808354040283529160200191610673565b820191906000526020600020905b81548152906001019060200180831161065657829003601f168201915b5050505050815260200160018201805461068c90610ff1565b80601f01602080910402602001604051908101604052809291908181526020018280546106b890610ff1565b80156107055780601f106106da57610100808354040283529160200191610705565b820191906000526020600020905b8154815290600101906020018083116106e857829003601f168201915b5050505050815260200160028201805461071e90610ff1565b80601f016020809104026020016040519081016040528092919081815260200182805461074a90610ff1565b80156107975780601f1061076c57610100808354040283529160200191610797565b820191906000526020600020905b81548152906001019060200180831161077a57829003601f168201915b5050509183525050600382015460208083019190915260049092015460ff811615156040808401919091526101009091046001600160a01b03166060928301528351928401519084015191840151608085015160a090950151939d919c50919a50909850919650945092505050565b805160208183018101805160018252928201919093012091528054819061082c90610ff1565b80601f016020809104026020016040519081016040528092919081815260200182805461085890610ff1565b80156108a55780601f1061087a576101008083540402835291602001916108a5565b820191906000526020600020905b81548152906001019060200180831161088857829003601f168201915b5050505050908060010180546108ba90610ff1565b80601f01602080910402602001604051908101604052809291908181526020018280546108e690610ff1565b80156109335780601f1061090857610100808354040283529160200191610933565b820191906000526020600020905b81548152906001019060200180831161091657829003601f168201915b50505050509080600201805461094890610ff1565b80601f016020809104026020016040519081016040528092919081815260200182805461097490610ff1565b80156109c15780601f10610996576101008083540402835291602001916109c1565b820191906000526020600020905b8154815290600101906020018083116109a457829003601f168201915b50505050600383015460049093015491929160ff8116915061010090046001600160a01b031686565b6000546001600160a01b03163314610a145760405162461bcd60e51b8152600401610220906111cc565b6001600160a01b03166000908152600260205260409020805460ff19166001179055565b610a7c6040518060c001604052806060815260200160608152602001606081526020016000815260200160001515815260200160006001600160a01b031681525090565b600182604051610a8c9190610fd5565b90815260200160405180910390206040518060c0016040529081600082018054610ab590610ff1565b80601f0160208091040260200160405190810160405280929190818152602001828054610ae190610ff1565b8015610b2e5780601f10610b0357610100808354040283529160200191610b2e565b820191906000526020600020905b815481529060010190602001808311610b1157829003601f168201915b50505050508152602001600182018054610b4790610ff1565b80601f0160208091040260200160405190810160405280929190818152602001828054610b7390610ff1565b8015610bc05780601f10610b9557610100808354040283529160200191610bc0565b820191906000526020600020905b815481529060010190602001808311610ba357829003601f168201915b50505050508152602001600282018054610bd990610ff1565b80601f0160208091040260200160405190810160405280929190818152602001828054610c0590610ff1565b8015610c525780601f10610c2757610100808354040283529160200191610c52565b820191906000526020600020905b815481529060010190602001808311610c3557829003601f168201915b50505091835250506003820154602082015260049091015460ff81161515604083015261010090046001600160a01b031660609091015292915050565b6000546001600160a01b03163314610cb95760405162461bcd60e51b8152600401610220906111cc565b6001600160a01b03166000908152600260205260409020805460ff19169055565b634e487b7160e01b600052604160045260246000fd5b600082601f830112610d0157600080fd5b813567ffffffffffffffff80821115610d1c57610d1c610cda565b604051601f8301601f19908116603f01168101908282118183101715610d4457610d44610cda565b81604052838152866020858801011115610d5d57600080fd5b836020870160208301376000602085830101528094505050505092915050565b600060208284031215610d8f57600080fd5b813567ffffffffffffffff811115610da657600080fd5b610db284828501610cf0565b949350505050565b60008060008060808587031215610dd057600080fd5b843567ffffffffffffffff80821115610de857600080fd5b610df488838901610cf0565b95506020870135915080821115610e0a57600080fd5b610e1688838901610cf0565b94506040870135915080821115610e2c57600080fd5b610e3888838901610cf0565b93506060870135915080821115610e4e57600080fd5b50610e5b87828801610cf0565b91505092959194509250565b60005b83811015610e82578181015183820152602001610e6a565b50506000910152565b60008151808452610ea3816020860160208601610e67565b601f01601f19169290920160200192915050565b60c081526000610eca60c0830189610e8b565b8281036020840152610edc8189610e8b565b90508281036040840152610ef08188610e8b565b6060840196909652505091151560808301526001600160a01b031660a0909101529392505050565b600060208284031215610f2a57600080fd5b81356001600160a01b0381168114610f4157600080fd5b9392505050565b602081526000825160c06020840152610f6460e0840182610e8b565b90506020840151601f1980858403016040860152610f828383610e8b565b9250604086015191508085840301606086015250610fa08282610e8b565b915050606084015160808401526080840151151560a084015260018060a01b0360a08501511660c08401528091505092915050565b60008251610fe7818460208701610e67565b9190910192915050565b600181811c9082168061100557607f821691505b60208210810361102557634e487b7160e01b600052602260045260246000fd5b50919050565b60408152600061103e6040830185610e8b565b905060018060a01b03831660208301529392505050565b601f82111561109f57600081815260208120601f850160051c8101602086101561107c5750805b601f850160051c820191505b8181101561109b57828155600101611088565b5050505b505050565b815167ffffffffffffffff8111156110be576110be610cda565b6110d2816110cc8454610ff1565b84611055565b602080601f83116001811461110757600084156110ef5750858301515b600019600386901b1c1916600185901b17855561109b565b600085815260208120601f198616915b8281101561113657888601518255948401946001909101908401611117565b50858210156111545787850151600019600388901b60f8161c191681555b5050505050600190811b01905550565b60a08152600061117760a0830188610e8b565b82810360208401526111898188610e8b565b9050828103604084015261119d8187610e8b565b905082810360608401526111b18186610e8b565b91505060018060a01b03831660808301529695505050505050565b60208082526027908201527f4f6e6c7920756e69766572736974792063616e20706572666f726d20746869736040820152661030b1ba34b7b760c91b60608201526080019056fea26469706673582212200b41a17c9d5cedcedbe4b797405dc0ca0cd7414c2418b45123bf267a71773da864736f6c63430008140033",
  "linkReferences": {},
  "deployedLinkReferences": {}
}